{
  "_format": "hh-sol-artifact-1",
  "contractName": "TrinosTOKEN",
  "sourceName": "contracts/trinostoken.sol",
  "abi": [
    {
      "inputs": [
        {
          "internalType": "address",
          "name": "initialOwner",
          "type": "address"
        },
        {
          "internalType": "address",
          "name": "initialMintAddress",
          "type": "address"
        }
      ],
      "stateMutability": "nonpayable",
      "type": "constructor"
    },
    {
      "inputs": [],
      "name": "CheckpointUnorderedInsertion",
      "type": "error"
    },
    {
      "inputs": [],
      "name": "ECDSAInvalidSignature",
      "type": "error"
    },
    {
      "inputs": [
        {
          "internalType": "uint256",
          "name": "length",
          "type": "uint256"
        }
      ],
      "name": "ECDSAInvalidSignatureLength",
      "type": "error"
    },
    {
      "inputs": [
        {
          "internalType": "bytes32",
          "name": "s",
          "type": "bytes32"
        }
      ],
      "name": "ECDSAInvalidSignatureS",
      "type": "error"
    },
    {
      "inputs": [
        {
          "internalType": "uint256",
          "name": "increasedSupply",
          "type": "uint256"
        },
        {
          "internalType": "uint256",
          "name": "cap",
          "type": "uint256"
        }
      ],
      "name": "ERC20ExceededSafeSupply",
      "type": "error"
    },
    {
      "inputs": [
        {
          "internalType": "address",
          "name": "spender",
          "type": "address"
        },
        {
          "internalType": "uint256",
          "name": "allowance",
          "type": "uint256"
        },
        {
          "internalType": "uint256",
          "name": "needed",
          "type": "uint256"
        }
      ],
      "name": "ERC20InsufficientAllowance",
      "type": "error"
    },
    {
      "inputs": [
        {
          "internalType": "address",
          "name": "sender",
          "type": "address"
        },
        {
          "internalType": "uint256",
          "name": "balance",
          "type": "uint256"
        },
        {
          "internalType": "uint256",
          "name": "needed",
          "type": "uint256"
        }
      ],
      "name": "ERC20InsufficientBalance",
      "type": "error"
    },
    {
      "inputs": [
        {
          "internalType": "address",
          "name": "approver",
          "type": "address"
        }
      ],
      "name": "ERC20InvalidApprover",
      "type": "error"
    },
    {
      "inputs": [
        {
          "internalType": "address",
          "name": "receiver",
          "type": "address"
        }
      ],
      "name": "ERC20InvalidReceiver",
      "type": "error"
    },
    {
      "inputs": [
        {
          "internalType": "address",
          "name": "sender",
          "type": "address"
        }
      ],
      "name": "ERC20InvalidSender",
      "type": "error"
    },
    {
      "inputs": [
        {
          "internalType": "address",
          "name": "spender",
          "type": "address"
        }
      ],
      "name": "ERC20InvalidSpender",
      "type": "error"
    },
    {
      "inputs": [
        {
          "internalType": "uint256",
          "name": "deadline",
          "type": "uint256"
        }
      ],
      "name": "ERC2612ExpiredSignature",
      "type": "error"
    },
    {
      "inputs": [
        {
          "internalType": "address",
          "name": "signer",
          "type": "address"
        },
        {
          "internalType": "address",
          "name": "owner",
          "type": "address"
        }
      ],
      "name": "ERC2612InvalidSigner",
      "type": "error"
    },
    {
      "inputs": [
        {
          "internalType": "uint256",
          "name": "maxLoan",
          "type": "uint256"
        }
      ],
      "name": "ERC3156ExceededMaxLoan",
      "type": "error"
    },
    {
      "inputs": [
        {
          "internalType": "address",
          "name": "receiver",
          "type": "address"
        }
      ],
      "name": "ERC3156InvalidReceiver",
      "type": "error"
    },
    {
      "inputs": [
        {
          "internalType": "address",
          "name": "token",
          "type": "address"
        }
      ],
      "name": "ERC3156UnsupportedToken",
      "type": "error"
    },
    {
      "inputs": [
        {
          "internalType": "uint256",
          "name": "timepoint",
          "type": "uint256"
        },
        {
          "internalType": "uint48",
          "name": "clock",
          "type": "uint48"
        }
      ],
      "name": "ERC5805FutureLookup",
      "type": "error"
    },
    {
      "inputs": [],
      "name": "ERC6372InconsistentClock",
      "type": "error"
    },
    {
      "inputs": [],
      "name": "EnforcedPause",
      "type": "error"
    },
    {
      "inputs": [],
      "name": "ExpectedPause",
      "type": "error"
    },
    {
      "inputs": [
        {
          "internalType": "address",
          "name": "account",
          "type": "address"
        },
        {
          "internalType": "uint256",
          "name": "currentNonce",
          "type": "uint256"
        }
      ],
      "name": "InvalidAccountNonce",
      "type": "error"
    },
    {
      "inputs": [],
      "name": "InvalidShortString",
      "type": "error"
    },
    {
      "inputs": [
        {
          "internalType": "address",
          "name": "owner",
          "type": "address"
        }
      ],
      "name": "OwnableInvalidOwner",
      "type": "error"
    },
    {
      "inputs": [
        {
          "internalType": "address",
          "name": "account",
          "type": "address"
        }
      ],
      "name": "OwnableUnauthorizedAccount",
      "type": "error"
    },
    {
      "inputs": [
        {
          "internalType": "uint8",
          "name": "bits",
          "type": "uint8"
        },
        {
          "internalType": "uint256",
          "name": "value",
          "type": "uint256"
        }
      ],
      "name": "SafeCastOverflowedUintDowncast",
      "type": "error"
    },
    {
      "inputs": [
        {
          "internalType": "string",
          "name": "str",
          "type": "string"
        }
      ],
      "name": "StringTooLong",
      "type": "error"
    },
    {
      "inputs": [
        {
          "internalType": "uint256",
          "name": "expiry",
          "type": "uint256"
        }
      ],
      "name": "VotesExpiredSignature",
      "type": "error"
    },
    {
      "anonymous": false,
      "inputs": [
        {
          "indexed": true,
          "internalType": "address",
          "name": "owner",
          "type": "address"
        },
        {
          "indexed": true,
          "internalType": "address",
          "name": "spender",
          "type": "address"
        },
        {
          "indexed": false,
          "internalType": "uint256",
          "name": "value",
          "type": "uint256"
        }
      ],
      "name": "Approval",
      "type": "event"
    },
    {
      "anonymous": false,
      "inputs": [
        {
          "indexed": true,
          "internalType": "address",
          "name": "delegator",
          "type": "address"
        },
        {
          "indexed": true,
          "internalType": "address",
          "name": "fromDelegate",
          "type": "address"
        },
        {
          "indexed": true,
          "internalType": "address",
          "name": "toDelegate",
          "type": "address"
        }
      ],
      "name": "DelegateChanged",
      "type": "event"
    },
    {
      "anonymous": false,
      "inputs": [
        {
          "indexed": true,
          "internalType": "address",
          "name": "delegate",
          "type": "address"
        },
        {
          "indexed": false,
          "internalType": "uint256",
          "name": "previousVotes",
          "type": "uint256"
        },
        {
          "indexed": false,
          "internalType": "uint256",
          "name": "newVotes",
          "type": "uint256"
        }
      ],
      "name": "DelegateVotesChanged",
      "type": "event"
    },
    {
      "anonymous": false,
      "inputs": [],
      "name": "EIP712DomainChanged",
      "type": "event"
    },
    {
      "anonymous": false,
      "inputs": [
        {
          "indexed": true,
          "internalType": "address",
          "name": "previousOwner",
          "type": "address"
        },
        {
          "indexed": true,
          "internalType": "address",
          "name": "newOwner",
          "type": "address"
        }
      ],
      "name": "OwnershipTransferred",
      "type": "event"
    },
    {
      "anonymous": false,
      "inputs": [
        {
          "indexed": false,
          "internalType": "address",
          "name": "account",
          "type": "address"
        }
      ],
      "name": "Paused",
      "type": "event"
    },
    {
      "anonymous": false,
      "inputs": [
        {
          "indexed": true,
          "internalType": "address",
          "name": "from",
          "type": "address"
        },
        {
          "indexed": true,
          "internalType": "address",
          "name": "to",
          "type": "address"
        },
        {
          "indexed": false,
          "internalType": "uint256",
          "name": "value",
          "type": "uint256"
        }
      ],
      "name": "Transfer",
      "type": "event"
    },
    {
      "anonymous": false,
      "inputs": [
        {
          "indexed": false,
          "internalType": "address",
          "name": "account",
          "type": "address"
        }
      ],
      "name": "Unpaused",
      "type": "event"
    },
    {
      "inputs": [],
      "name": "CLOCK_MODE",
      "outputs": [
        {
          "internalType": "string",
          "name": "",
          "type": "string"
        }
      ],
      "stateMutability": "pure",
      "type": "function"
    },
    {
      "inputs": [],
      "name": "DOMAIN_SEPARATOR",
      "outputs": [
        {
          "internalType": "bytes32",
          "name": "",
          "type": "bytes32"
        }
      ],
      "stateMutability": "view",
      "type": "function"
    },
    {
      "inputs": [
        {
          "internalType": "address",
          "name": "owner",
          "type": "address"
        },
        {
          "internalType": "address",
          "name": "spender",
          "type": "address"
        }
      ],
      "name": "allowance",
      "outputs": [
        {
          "internalType": "uint256",
          "name": "",
          "type": "uint256"
        }
      ],
      "stateMutability": "view",
      "type": "function"
    },
    {
      "inputs": [
        {
          "internalType": "address",
          "name": "spender",
          "type": "address"
        },
        {
          "internalType": "uint256",
          "name": "value",
          "type": "uint256"
        }
      ],
      "name": "approve",
      "outputs": [
        {
          "internalType": "bool",
          "name": "",
          "type": "bool"
        }
      ],
      "stateMutability": "nonpayable",
      "type": "function"
    },
    {
      "inputs": [
        {
          "internalType": "address",
          "name": "account",
          "type": "address"
        }
      ],
      "name": "balanceOf",
      "outputs": [
        {
          "internalType": "uint256",
          "name": "",
          "type": "uint256"
        }
      ],
      "stateMutability": "view",
      "type": "function"
    },
    {
      "inputs": [
        {
          "internalType": "uint256",
          "name": "value",
          "type": "uint256"
        }
      ],
      "name": "burn",
      "outputs": [],
      "stateMutability": "nonpayable",
      "type": "function"
    },
    {
      "inputs": [
        {
          "internalType": "address",
          "name": "account",
          "type": "address"
        },
        {
          "internalType": "uint256",
          "name": "value",
          "type": "uint256"
        }
      ],
      "name": "burnFrom",
      "outputs": [],
      "stateMutability": "nonpayable",
      "type": "function"
    },
    {
      "inputs": [
        {
          "internalType": "address",
          "name": "account",
          "type": "address"
        },
        {
          "internalType": "uint32",
          "name": "pos",
          "type": "uint32"
        }
      ],
      "name": "checkpoints",
      "outputs": [
        {
          "components": [
            {
              "internalType": "uint48",
              "name": "_key",
              "type": "uint48"
            },
            {
              "internalType": "uint208",
              "name": "_value",
              "type": "uint208"
            }
          ],
          "internalType": "struct Checkpoints.Checkpoint208",
          "name": "",
          "type": "tuple"
        }
      ],
      "stateMutability": "view",
      "type": "function"
    },
    {
      "inputs": [],
      "name": "clock",
      "outputs": [
        {
          "internalType": "uint48",
          "name": "",
          "type": "uint48"
        }
      ],
      "stateMutability": "view",
      "type": "function"
    },
    {
      "inputs": [],
      "name": "decimals",
      "outputs": [
        {
          "internalType": "uint8",
          "name": "",
          "type": "uint8"
        }
      ],
      "stateMutability": "view",
      "type": "function"
    },
    {
      "inputs": [
        {
          "internalType": "address",
          "name": "delegatee",
          "type": "address"
        }
      ],
      "name": "delegate",
      "outputs": [],
      "stateMutability": "nonpayable",
      "type": "function"
    },
    {
      "inputs": [
        {
          "internalType": "address",
          "name": "delegatee",
          "type": "address"
        },
        {
          "internalType": "uint256",
          "name": "nonce",
          "type": "uint256"
        },
        {
          "internalType": "uint256",
          "name": "expiry",
          "type": "uint256"
        },
        {
          "internalType": "uint8",
          "name": "v",
          "type": "uint8"
        },
        {
          "internalType": "bytes32",
          "name": "r",
          "type": "bytes32"
        },
        {
          "internalType": "bytes32",
          "name": "s",
          "type": "bytes32"
        }
      ],
      "name": "delegateBySig",
      "outputs": [],
      "stateMutability": "nonpayable",
      "type": "function"
    },
    {
      "inputs": [
        {
          "internalType": "address",
          "name": "account",
          "type": "address"
        }
      ],
      "name": "delegates",
      "outputs": [
        {
          "internalType": "address",
          "name": "",
          "type": "address"
        }
      ],
      "stateMutability": "view",
      "type": "function"
    },
    {
      "inputs": [],
      "name": "eip712Domain",
      "outputs": [
        {
          "internalType": "bytes1",
          "name": "fields",
          "type": "bytes1"
        },
        {
          "internalType": "string",
          "name": "name",
          "type": "string"
        },
        {
          "internalType": "string",
          "name": "version",
          "type": "string"
        },
        {
          "internalType": "uint256",
          "name": "chainId",
          "type": "uint256"
        },
        {
          "internalType": "address",
          "name": "verifyingContract",
          "type": "address"
        },
        {
          "internalType": "bytes32",
          "name": "salt",
          "type": "bytes32"
        },
        {
          "internalType": "uint256[]",
          "name": "extensions",
          "type": "uint256[]"
        }
      ],
      "stateMutability": "view",
      "type": "function"
    },
    {
      "inputs": [
        {
          "internalType": "address",
          "name": "token",
          "type": "address"
        },
        {
          "internalType": "uint256",
          "name": "value",
          "type": "uint256"
        }
      ],
      "name": "flashFee",
      "outputs": [
        {
          "internalType": "uint256",
          "name": "",
          "type": "uint256"
        }
      ],
      "stateMutability": "view",
      "type": "function"
    },
    {
      "inputs": [
        {
          "internalType": "contract IERC3156FlashBorrower",
          "name": "receiver",
          "type": "address"
        },
        {
          "internalType": "address",
          "name": "token",
          "type": "address"
        },
        {
          "internalType": "uint256",
          "name": "value",
          "type": "uint256"
        },
        {
          "internalType": "bytes",
          "name": "data",
          "type": "bytes"
        }
      ],
      "name": "flashLoan",
      "outputs": [
        {
          "internalType": "bool",
          "name": "",
          "type": "bool"
        }
      ],
      "stateMutability": "nonpayable",
      "type": "function"
    },
    {
      "inputs": [
        {
          "internalType": "address",
          "name": "account",
          "type": "address"
        }
      ],
      "name": "getBalance",
      "outputs": [
        {
          "internalType": "uint256",
          "name": "",
          "type": "uint256"
        }
      ],
      "stateMutability": "view",
      "type": "function"
    },
    {
      "inputs": [
        {
          "internalType": "uint256",
          "name": "timepoint",
          "type": "uint256"
        }
      ],
      "name": "getPastTotalSupply",
      "outputs": [
        {
          "internalType": "uint256",
          "name": "",
          "type": "uint256"
        }
      ],
      "stateMutability": "view",
      "type": "function"
    },
    {
      "inputs": [
        {
          "internalType": "address",
          "name": "account",
          "type": "address"
        },
        {
          "internalType": "uint256",
          "name": "timepoint",
          "type": "uint256"
        }
      ],
      "name": "getPastVotes",
      "outputs": [
        {
          "internalType": "uint256",
          "name": "",
          "type": "uint256"
        }
      ],
      "stateMutability": "view",
      "type": "function"
    },
    {
      "inputs": [
        {
          "internalType": "address",
          "name": "account",
          "type": "address"
        }
      ],
      "name": "getVotes",
      "outputs": [
        {
          "internalType": "uint256",
          "name": "",
          "type": "uint256"
        }
      ],
      "stateMutability": "view",
      "type": "function"
    },
    {
      "inputs": [
        {
          "internalType": "address",
          "name": "token",
          "type": "address"
        }
      ],
      "name": "maxFlashLoan",
      "outputs": [
        {
          "internalType": "uint256",
          "name": "",
          "type": "uint256"
        }
      ],
      "stateMutability": "view",
      "type": "function"
    },
    {
      "inputs": [
        {
          "internalType": "address",
          "name": "to",
          "type": "address"
        },
        {
          "internalType": "uint256",
          "name": "amount",
          "type": "uint256"
        }
      ],
      "name": "mint",
      "outputs": [],
      "stateMutability": "nonpayable",
      "type": "function"
    },
    {
      "inputs": [],
      "name": "name",
      "outputs": [
        {
          "internalType": "string",
          "name": "",
          "type": "string"
        }
      ],
      "stateMutability": "view",
      "type": "function"
    },
    {
      "inputs": [
        {
          "internalType": "address",
          "name": "owner",
          "type": "address"
        }
      ],
      "name": "nonces",
      "outputs": [
        {
          "internalType": "uint256",
          "name": "",
          "type": "uint256"
        }
      ],
      "stateMutability": "view",
      "type": "function"
    },
    {
      "inputs": [
        {
          "internalType": "address",
          "name": "account",
          "type": "address"
        }
      ],
      "name": "numCheckpoints",
      "outputs": [
        {
          "internalType": "uint32",
          "name": "",
          "type": "uint32"
        }
      ],
      "stateMutability": "view",
      "type": "function"
    },
    {
      "inputs": [],
      "name": "owner",
      "outputs": [
        {
          "internalType": "address",
          "name": "",
          "type": "address"
        }
      ],
      "stateMutability": "view",
      "type": "function"
    },
    {
      "inputs": [],
      "name": "pause",
      "outputs": [],
      "stateMutability": "nonpayable",
      "type": "function"
    },
    {
      "inputs": [],
      "name": "paused",
      "outputs": [
        {
          "internalType": "bool",
          "name": "",
          "type": "bool"
        }
      ],
      "stateMutability": "view",
      "type": "function"
    },
    {
      "inputs": [
        {
          "internalType": "address",
          "name": "owner",
          "type": "address"
        },
        {
          "internalType": "address",
          "name": "spender",
          "type": "address"
        },
        {
          "internalType": "uint256",
          "name": "value",
          "type": "uint256"
        },
        {
          "internalType": "uint256",
          "name": "deadline",
          "type": "uint256"
        },
        {
          "internalType": "uint8",
          "name": "v",
          "type": "uint8"
        },
        {
          "internalType": "bytes32",
          "name": "r",
          "type": "bytes32"
        },
        {
          "internalType": "bytes32",
          "name": "s",
          "type": "bytes32"
        }
      ],
      "name": "permit",
      "outputs": [],
      "stateMutability": "nonpayable",
      "type": "function"
    },
    {
      "inputs": [],
      "name": "renounceOwnership",
      "outputs": [],
      "stateMutability": "nonpayable",
      "type": "function"
    },
    {
      "inputs": [],
      "name": "symbol",
      "outputs": [
        {
          "internalType": "string",
          "name": "",
          "type": "string"
        }
      ],
      "stateMutability": "view",
      "type": "function"
    },
    {
      "inputs": [],
      "name": "totalMintedSupply",
      "outputs": [
        {
          "internalType": "uint256",
          "name": "",
          "type": "uint256"
        }
      ],
      "stateMutability": "view",
      "type": "function"
    },
    {
      "inputs": [],
      "name": "totalSupply",
      "outputs": [
        {
          "internalType": "uint256",
          "name": "",
          "type": "uint256"
        }
      ],
      "stateMutability": "view",
      "type": "function"
    },
    {
      "inputs": [
        {
          "internalType": "address",
          "name": "to",
          "type": "address"
        },
        {
          "internalType": "uint256",
          "name": "value",
          "type": "uint256"
        }
      ],
      "name": "transfer",
      "outputs": [
        {
          "internalType": "bool",
          "name": "",
          "type": "bool"
        }
      ],
      "stateMutability": "nonpayable",
      "type": "function"
    },
    {
      "inputs": [
        {
          "internalType": "address",
          "name": "from",
          "type": "address"
        },
        {
          "internalType": "address",
          "name": "to",
          "type": "address"
        },
        {
          "internalType": "uint256",
          "name": "value",
          "type": "uint256"
        }
      ],
      "name": "transferFrom",
      "outputs": [
        {
          "internalType": "bool",
          "name": "",
          "type": "bool"
        }
      ],
      "stateMutability": "nonpayable",
      "type": "function"
    },
    {
      "inputs": [
        {
          "internalType": "address",
          "name": "newOwner",
          "type": "address"
        }
      ],
      "name": "transferOwnership",
      "outputs": [],
      "stateMutability": "nonpayable",
      "type": "function"
    },
    {
      "inputs": [],
      "name": "unpause",
      "outputs": [],
      "stateMutability": "nonpayable",
      "type": "function"
    }
  ],
  "bytecode": "0x6101606040523480156200001257600080fd5b50604051620060ed380380620060ed83398181016040528101906200003891906200127d565b6040518060400160405280600b81526020017f5472696e6f73544f4b454e000000000000000000000000000000000000000000815250806040518060400160405280600181526020017f3100000000000000000000000000000000000000000000000000000000000000815250846040518060400160405280600b81526020017f5472696e6f73546f6b656e0000000000000000000000000000000000000000008152506040518060400160405280600381526020017f54524e000000000000000000000000000000000000000000000000000000000081525081600390816200012391906200153e565b5080600490816200013591906200153e565b5050506000600560006101000a81548160ff021916908315150217905550600073ffffffffffffffffffffffffffffffffffffffff168173ffffffffffffffffffffffffffffffffffffffff1603620001c85760006040517f1e4fbdf7000000000000000000000000000000000000000000000000000000008152600401620001bf919062001636565b60405180910390fd5b620001d981620002d260201b60201c565b50620001f06006836200039860201b90919060201c565b61012081815250506200020e6007826200039860201b90919060201c565b6101408181525050818051906020012060e08181525050808051906020012061010081815250504660a081815250506200024d620003f060201b60201c565b608081815250503073ffffffffffffffffffffffffffffffffffffffff1660c08173ffffffffffffffffffffffffffffffffffffffff1681525050505050620002ca81620002a06200044d60201b60201c565b600a620002ae9190620017e3565b620186a0620002be919062001834565b6200045660201b60201c565b505062001c9a565b6000600560019054906101000a900473ffffffffffffffffffffffffffffffffffffffff16905081600560016101000a81548173ffffffffffffffffffffffffffffffffffffffff021916908373ffffffffffffffffffffffffffffffffffffffff1602179055508173ffffffffffffffffffffffffffffffffffffffff168173ffffffffffffffffffffffffffffffffffffffff167f8be0079c531659141344cd1fd0a4f28419497f9722a3daafe3b4186f6b6457e060405160405180910390a35050565b6000602083511015620003be57620003b683620004e360201b60201c565b9050620003ea565b82620003d0836200055060201b60201c565b6000019081620003e191906200153e565b5060ff60001b90505b92915050565b60007f8b73c3c69bb8fe3d512ecc4cf759cc79239f7b179b0ffacaa9a75d522b39400f60e05161010051463060405160200162000432959493929190620018ab565b60405160208183030381529060405280519060200120905090565b60006012905090565b600073ffffffffffffffffffffffffffffffffffffffff168273ffffffffffffffffffffffffffffffffffffffff1603620004cb5760006040517fec442f05000000000000000000000000000000000000000000000000000000008152600401620004c2919062001636565b60405180910390fd5b620004df600083836200055a60201b60201c565b5050565b600080829050601f815111156200053357826040517f305a27a90000000000000000000000000000000000000000000000000000000081526004016200052a919062001997565b60405180910390fd5b8051816200054190620019ed565b60001c1760001b915050919050565b6000819050919050565b6200056d8383836200057260201b60201c565b505050565b620005858383836200064760201b60201c565b600073ffffffffffffffffffffffffffffffffffffffff168373ffffffffffffffffffffffffffffffffffffffff16036200062f576000620005cc6200066f60201b60201c565b90506000620005e06200067960201b60201c565b9050808211156200062c5781816040517f1cb15d260000000000000000000000000000000000000000000000000000000081526004016200062392919062001a5d565b60405180910390fd5b50505b620006428383836200069d60201b60201c565b505050565b62000657620007a360201b60201c565b6200066a838383620007ed60201b60201c565b505050565b6000600254905090565b600079ffffffffffffffffffffffffffffffffffffffffffffffffffff8016905090565b600073ffffffffffffffffffffffffffffffffffffffff168373ffffffffffffffffffffffffffffffffffffffff1603620007045762000701600b62000a1d60201b620013e817620006f58462000a3560201b60201c565b62000aa660201b60201c565b50505b600073ffffffffffffffffffffffffffffffffffffffff168273ffffffffffffffffffffffffffffffffffffffff16036200076b5762000768600b62000af660201b620013fe176200075c8462000a3560201b60201c565b62000aa660201b60201c565b50505b6200079e620007808462000b0e60201b60201c565b620007918462000b0e60201b60201c565b8362000b7760201b60201c565b505050565b620007b362000e2a60201b60201c565b15620007eb576040517fd93c066500000000000000000000000000000000000000000000000000000000815260040160405180910390fd5b565b600073ffffffffffffffffffffffffffffffffffffffff168373ffffffffffffffffffffffffffffffffffffffff16036200084357806002600082825462000836919062001a8a565b9250508190555062000919565b60008060008573ffffffffffffffffffffffffffffffffffffffff1673ffffffffffffffffffffffffffffffffffffffff16815260200190815260200160002054905081811015620008d2578381836040517fe450d38c000000000000000000000000000000000000000000000000000000008152600401620008c99392919062001ac5565b60405180910390fd5b8181036000808673ffffffffffffffffffffffffffffffffffffffff1673ffffffffffffffffffffffffffffffffffffffff16815260200190815260200160002081905550505b600073ffffffffffffffffffffffffffffffffffffffff168273ffffffffffffffffffffffffffffffffffffffff1603620009645780600260008282540392505081905550620009b1565b806000808473ffffffffffffffffffffffffffffffffffffffff1673ffffffffffffffffffffffffffffffffffffffff168152602001908152602001600020600082825401925050819055505b8173ffffffffffffffffffffffffffffffffffffffff168373ffffffffffffffffffffffffffffffffffffffff167fddf252ad1be2c89b69c2b068fc378daa952ba7f163c4a11628f55a4df523b3ef8360405162000a10919062001b02565b60405180910390a3505050565b6000818362000a2d919062001b45565b905092915050565b600079ffffffffffffffffffffffffffffffffffffffffffffffffffff801682111562000a9e5760d0826040517f6dfcc65000000000000000000000000000000000000000000000000000000000815260040162000a9592919062001bdd565b60405180910390fd5b819050919050565b60008062000aea62000abd62000e4160201b60201c565b62000ad962000ad28862000e4960201b60201c565b868860201c565b8762000ebd60201b9092919060201c565b91509150935093915050565b6000818362000b06919062001c0a565b905092915050565b6000600960008373ffffffffffffffffffffffffffffffffffffffff1673ffffffffffffffffffffffffffffffffffffffff16815260200190815260200160002060009054906101000a900473ffffffffffffffffffffffffffffffffffffffff169050919050565b8173ffffffffffffffffffffffffffffffffffffffff168373ffffffffffffffffffffffffffffffffffffffff161415801562000bb45750600081115b1562000e2557600073ffffffffffffffffffffffffffffffffffffffff168373ffffffffffffffffffffffffffffffffffffffff161462000cef5760008062000c5e600a60008773ffffffffffffffffffffffffffffffffffffffff1673ffffffffffffffffffffffffffffffffffffffff16815260200190815260200160002062000af660201b620013fe1762000c528662000a3560201b60201c565b62000aa660201b60201c565b79ffffffffffffffffffffffffffffffffffffffffffffffffffff16915079ffffffffffffffffffffffffffffffffffffffffffffffffffff1691508473ffffffffffffffffffffffffffffffffffffffff167fdec2bacdd2f05b59de34da9b523dff8be42e5e38e818c82fdb0bae774387a724838360405162000ce492919062001a5d565b60405180910390a250505b600073ffffffffffffffffffffffffffffffffffffffff168273ffffffffffffffffffffffffffffffffffffffff161462000e245760008062000d93600a60008673ffffffffffffffffffffffffffffffffffffffff1673ffffffffffffffffffffffffffffffffffffffff16815260200190815260200160002062000a1d60201b620013e81762000d878662000a3560201b60201c565b62000aa660201b60201c565b79ffffffffffffffffffffffffffffffffffffffffffffffffffff16915079ffffffffffffffffffffffffffffffffffffffffffffffffffff1691508373ffffffffffffffffffffffffffffffffffffffff167fdec2bacdd2f05b59de34da9b523dff8be42e5e38e818c82fdb0bae774387a724838360405162000e1992919062001a5d565b60405180910390a250505b5b505050565b6000600560009054906101000a900460ff16905090565b600042905090565b600080826000018054905090506000811462000eb25762000e828360000160018362000e76919062001c5f565b62000ee260201b60201c565b60000160069054906101000a900479ffffffffffffffffffffffffffffffffffffffffffffffffffff1662000eb5565b60005b915050919050565b60008062000ed685600001858562000ef760201b60201c565b91509150935093915050565b60008260005281602060002001905092915050565b60008060008580549050905060008111156200112357600062000f2f8760018462000f23919062001c5f565b62000ee260201b60201c565b905060008160000160009054906101000a900465ffffffffffff16905060008260000160069054906101000a900479ffffffffffffffffffffffffffffffffffffffffffffffffffff1690508765ffffffffffff168265ffffffffffff16111562000fc6576040517f2520601d00000000000000000000000000000000000000000000000000000000815260040160405180910390fd5b8765ffffffffffff168265ffffffffffff16036200103357868360000160066101000a81548179ffffffffffffffffffffffffffffffffffffffffffffffffffff021916908379ffffffffffffffffffffffffffffffffffffffffffffffffffff16021790555062001113565b8860405180604001604052808a65ffffffffffff1681526020018979ffffffffffffffffffffffffffffffffffffffffffffffffffff168152509080600181540180825580915050600190039060005260206000200160009091909190915060008201518160000160006101000a81548165ffffffffffff021916908365ffffffffffff16021790555060208201518160000160066101000a81548179ffffffffffffffffffffffffffffffffffffffffffffffffffff021916908379ffffffffffffffffffffffffffffffffffffffffffffffffffff16021790555050505b808795509550505050506200120b565b8560405180604001604052808765ffffffffffff1681526020018679ffffffffffffffffffffffffffffffffffffffffffffffffffff168152509080600181540180825580915050600190039060005260206000200160009091909190915060008201518160000160006101000a81548165ffffffffffff021916908365ffffffffffff16021790555060208201518160000160066101000a81548179ffffffffffffffffffffffffffffffffffffffffffffffffffff021916908379ffffffffffffffffffffffffffffffffffffffffffffffffffff160217905550505060008492509250505b935093915050565b600080fd5b600073ffffffffffffffffffffffffffffffffffffffff82169050919050565b6000620012458262001218565b9050919050565b620012578162001238565b81146200126357600080fd5b50565b60008151905062001277816200124c565b92915050565b6000806040838503121562001297576200129662001213565b5b6000620012a78582860162001266565b9250506020620012ba8582860162001266565b9150509250929050565b600081519050919050565b7f4e487b7100000000000000000000000000000000000000000000000000000000600052604160045260246000fd5b7f4e487b7100000000000000000000000000000000000000000000000000000000600052602260045260246000fd5b600060028204905060018216806200134657607f821691505b6020821081036200135c576200135b620012fe565b5b50919050565b60008190508160005260206000209050919050565b60006020601f8301049050919050565b600082821b905092915050565b600060088302620013c67fffffffffffffffffffffffffffffffffffffffffffffffffffffffffffffffff8262001387565b620013d2868362001387565b95508019841693508086168417925050509392505050565b6000819050919050565b6000819050919050565b60006200141f620014196200141384620013ea565b620013f4565b620013ea565b9050919050565b6000819050919050565b6200143b83620013fe565b620014536200144a8262001426565b84845462001394565b825550505050565b600090565b6200146a6200145b565b6200147781848462001430565b505050565b5b818110156200149f576200149360008262001460565b6001810190506200147d565b5050565b601f821115620014ee57620014b88162001362565b620014c38462001377565b81016020851015620014d3578190505b620014eb620014e28562001377565b8301826200147c565b50505b505050565b600082821c905092915050565b60006200151360001984600802620014f3565b1980831691505092915050565b60006200152e838362001500565b9150826002028217905092915050565b6200154982620012c4565b67ffffffffffffffff811115620015655762001564620012cf565b5b6200157182546200132d565b6200157e828285620014a3565b600060209050601f831160018114620015b65760008415620015a1578287015190505b620015ad858262001520565b8655506200161d565b601f198416620015c68662001362565b60005b82811015620015f057848901518255600182019150602085019450602081019050620015c9565b868310156200161057848901516200160c601f89168262001500565b8355505b6001600288020188555050505b505050505050565b620016308162001238565b82525050565b60006020820190506200164d600083018462001625565b92915050565b7f4e487b7100000000000000000000000000000000000000000000000000000000600052601160045260246000fd5b60008160011c9050919050565b6000808291508390505b6001851115620016e157808604811115620016b957620016b862001653565b5b6001851615620016c95780820291505b8081029050620016d98562001682565b945062001699565b94509492505050565b600082620016fc5760019050620017cf565b816200170c5760009050620017cf565b8160018114620017255760028114620017305762001766565b6001915050620017cf565b60ff84111562001745576200174462001653565b5b8360020a9150848211156200175f576200175e62001653565b5b50620017cf565b5060208310610133831016604e8410600b8410161715620017a05782820a9050838111156200179a576200179962001653565b5b620017cf565b620017af84848460016200168f565b92509050818404811115620017c957620017c862001653565b5b81810290505b9392505050565b600060ff82169050919050565b6000620017f082620013ea565b9150620017fd83620017d6565b92506200182c7fffffffffffffffffffffffffffffffffffffffffffffffffffffffffffffffff8484620016ea565b905092915050565b60006200184182620013ea565b91506200184e83620013ea565b92508282026200185e81620013ea565b9150828204841483151762001878576200187762001653565b5b5092915050565b6000819050919050565b62001894816200187f565b82525050565b620018a581620013ea565b82525050565b600060a082019050620018c2600083018862001889565b620018d1602083018762001889565b620018e0604083018662001889565b620018ef60608301856200189a565b620018fe608083018462001625565b9695505050505050565b600082825260208201905092915050565b60005b83811015620019395780820151818401526020810190506200191c565b60008484015250505050565b6000601f19601f8301169050919050565b60006200196382620012c4565b6200196f818562001908565b93506200198181856020860162001919565b6200198c8162001945565b840191505092915050565b60006020820190508181036000830152620019b3818462001956565b905092915050565b600081519050919050565b6000819050602082019050919050565b6000620019e482516200187f565b80915050919050565b6000620019fa82620019bb565b8262001a0684620019c6565b905062001a1381620019d6565b9250602082101562001a565762001a517fffffffffffffffffffffffffffffffffffffffffffffffffffffffffffffffff8360200360080262001387565b831692505b5050919050565b600060408201905062001a7460008301856200189a565b62001a8360208301846200189a565b9392505050565b600062001a9782620013ea565b915062001aa483620013ea565b925082820190508082111562001abf5762001abe62001653565b5b92915050565b600060608201905062001adc600083018662001625565b62001aeb60208301856200189a565b62001afa60408301846200189a565b949350505050565b600060208201905062001b1960008301846200189a565b92915050565b600079ffffffffffffffffffffffffffffffffffffffffffffffffffff82169050919050565b600062001b528262001b1f565b915062001b5f8362001b1f565b9250828201905079ffffffffffffffffffffffffffffffffffffffffffffffffffff81111562001b945762001b9362001653565b5b92915050565b6000819050919050565b600062001bc562001bbf62001bb98462001b9a565b620013f4565b620017d6565b9050919050565b62001bd78162001ba4565b82525050565b600060408201905062001bf4600083018562001bcc565b62001c0360208301846200189a565b9392505050565b600062001c178262001b1f565b915062001c248362001b1f565b9250828203905079ffffffffffffffffffffffffffffffffffffffffffffffffffff81111562001c595762001c5862001653565b5b92915050565b600062001c6c82620013ea565b915062001c7983620013ea565b925082820390508181111562001c945762001c9362001653565b5b92915050565b60805160a05160c05160e0516101005161012051610140516143f862001cf56000396000611c9f01526000611c64015260006120c8015260006120a7015260006115ba015260006116100152600061163901526143f86000f3fe608060405234801561001057600080fd5b50600436106102275760003560e01c806370a082311161013057806395d89b41116100b8578063d9d98ce41161007c578063d9d98ce414610682578063dd62ed3e146106b2578063f1127ed8146106e2578063f2fde38b14610712578063f8b2cb4f1461072e57610227565b806395d89b41146105cc5780639ab24eb0146105ea578063a9059cbb1461061a578063c3cda5201461064a578063d505accf1461066657610227565b80638456cb59116100ff5780638456cb591461053257806384b0196e1461053c5780638da5cb5b146105605780638e539e8c1461057e57806391ddadf4146105ae57610227565b806370a08231146104ac578063715018a6146104dc57806379cc6790146104e65780637ecebe001461050257610227565b806342966c68116101b35780635c975abb116101825780635c975abb146103e05780635cffe9de146103fe578063601e26031461042e578063613255ab1461044c5780636fcfff451461047c57610227565b806342966c681461035a5780634bf5d7e914610376578063587cde1e146103945780635c19a95c146103c457610227565b8063313ce567116101fa578063313ce567146102c85780633644e515146102e65780633a46b1a8146103045780633f4ba83a1461033457806340c10f191461033e57610227565b806306fdde031461022c578063095ea7b31461024a57806318160ddd1461027a57806323b872dd14610298575b600080fd5b61023461075e565b6040516102419190613487565b60405180910390f35b610264600480360381019061025f9190613547565b6107f0565b60405161027191906135a2565b60405180910390f35b610282610813565b60405161028f91906135cc565b60405180910390f35b6102b260048036038101906102ad91906135e7565b61081d565b6040516102bf91906135a2565b60405180910390f35b6102d061084c565b6040516102dd9190613656565b60405180910390f35b6102ee610855565b6040516102fb919061368a565b60405180910390f35b61031e60048036038101906103199190613547565b610864565b60405161032b91906135cc565b60405180910390f35b61033c61093d565b005b61035860048036038101906103539190613547565b61094f565b005b610374600480360381019061036f91906136a5565b610965565b005b61037e610979565b60405161038b9190613487565b60405180910390f35b6103ae60048036038101906103a991906136d2565b6109b6565b6040516103bb919061370e565b60405180910390f35b6103de60048036038101906103d991906136d2565b610a1f565b005b6103e8610a39565b6040516103f591906135a2565b60405180910390f35b610418600480360381019061041391906137cc565b610a50565b60405161042591906135a2565b60405180910390f35b610436610c4d565b60405161044391906135cc565b60405180910390f35b610466600480360381019061046191906136d2565b610c5c565b60405161047391906135cc565b60405180910390f35b610496600480360381019061049191906136d2565b610cd3565b6040516104a39190613873565b60405180910390f35b6104c660048036038101906104c191906136d2565b610ce5565b6040516104d391906135cc565b60405180910390f35b6104e4610d2d565b005b61050060048036038101906104fb9190613547565b610d41565b005b61051c600480360381019061051791906136d2565b610d61565b60405161052991906135cc565b60405180910390f35b61053a610d73565b005b610544610d85565b6040516105579796959493929190613987565b60405180910390f35b610568610e2f565b604051610575919061370e565b60405180910390f35b610598600480360381019061059391906136a5565b610e59565b6040516105a591906135cc565b60405180910390f35b6105b6610ef4565b6040516105c39190613a2c565b60405180910390f35b6105d4610efc565b6040516105e19190613487565b60405180910390f35b61060460048036038101906105ff91906136d2565b610f8e565b60405161061191906135cc565b60405180910390f35b610634600480360381019061062f9190613547565b610ffa565b60405161064191906135a2565b60405180910390f35b610664600480360381019061065f9190613a9f565b61101d565b005b610680600480360381019061067b9190613b2c565b6110e3565b005b61069c60048036038101906106979190613547565b61122b565b6040516106a991906135cc565b60405180910390f35b6106cc60048036038101906106c79190613bce565b6112af565b6040516106d991906135cc565b60405180910390f35b6106fc60048036038101906106f79190613c3a565b611336565b6040516107099190613ced565b60405180910390f35b61072c600480360381019061072791906136d2565b611350565b005b610748600480360381019061074391906136d2565b6113d6565b60405161075591906135cc565b60405180910390f35b60606003805461076d90613d37565b80601f016020809104026020016040519081016040528092919081815260200182805461079990613d37565b80156107e65780601f106107bb576101008083540402835291602001916107e6565b820191906000526020600020905b8154815290600101906020018083116107c957829003601f168201915b5050505050905090565b6000806107fb611414565b905061080881858561141c565b600191505092915050565b6000600254905090565b600080610828611414565b905061083585828561142e565b6108408585856114c2565b60019150509392505050565b60006012905090565b600061085f6115b6565b905090565b60008061086f610ef4565b90508065ffffffffffff1683106108bf5782816040517fecd3f81e0000000000000000000000000000000000000000000000000000000081526004016108b6929190613d68565b60405180910390fd5b6109186108cb8461166d565b600a60008773ffffffffffffffffffffffffffffffffffffffff1673ffffffffffffffffffffffffffffffffffffffff1681526020019081526020016000206116c790919063ffffffff16565b79ffffffffffffffffffffffffffffffffffffffffffffffffffff1691505092915050565b6109456117c1565b61094d611848565b565b6109576117c1565b61096182826118ab565b5050565b610976610970611414565b8261192d565b50565b60606040518060400160405280600e81526020017f6d6f64653d74696d657374616d70000000000000000000000000000000000000815250905090565b6000600960008373ffffffffffffffffffffffffffffffffffffffff1673ffffffffffffffffffffffffffffffffffffffff16815260200190815260200160002060009054906101000a900473ffffffffffffffffffffffffffffffffffffffff169050919050565b6000610a29611414565b9050610a3581836119af565b5050565b6000600560009054906101000a900460ff16905090565b600080610a5c86610c5c565b905080851115610aa357806040517ffd9a7609000000000000000000000000000000000000000000000000000000008152600401610a9a91906135cc565b60405180910390fd5b6000610aaf878761122b565b9050610abb88876118ab565b7f439148f0bbc682ca079e46d6e2c2f0c1e3b820f1a291b069d8882abf8cf18dd98873ffffffffffffffffffffffffffffffffffffffff166323e30c8b610b00611414565b8a8a868b8b6040518763ffffffff1660e01b8152600401610b2696959493929190613dde565b6020604051808303816000875af1158015610b45573d6000803e3d6000fd5b505050506040513d601f19601f82011682018060405250810190610b699190613e4f565b14610bab57876040517f678c5b00000000000000000000000000000000000000000000000000000000008152600401610ba2919061370e565b60405180910390fd5b6000610bb5611ac3565b9050610bcd8930848a610bc89190613eab565b61142e565b6000821480610c085750600073ffffffffffffffffffffffffffffffffffffffff168173ffffffffffffffffffffffffffffffffffffffff16145b15610c2757610c22898389610c1d9190613eab565b61192d565b610c3d565b610c31898861192d565b610c3c8982846114c2565b5b6001935050505095945050505050565b6000610c57610813565b905090565b60003073ffffffffffffffffffffffffffffffffffffffff168273ffffffffffffffffffffffffffffffffffffffff1614610c98576000610ccc565b610ca0610813565b7fffffffffffffffffffffffffffffffffffffffffffffffffffffffffffffffff610ccb9190613edf565b5b9050919050565b6000610cde82611ac8565b9050919050565b60008060008373ffffffffffffffffffffffffffffffffffffffff1673ffffffffffffffffffffffffffffffffffffffff168152602001908152602001600020549050919050565b610d356117c1565b610d3f6000611b20565b565b610d5382610d4d611414565b8361142e565b610d5d828261192d565b5050565b6000610d6c82611be6565b9050919050565b610d7b6117c1565b610d83611bf8565b565b600060608060008060006060610d99611c5b565b610da1611c96565b46306000801b600067ffffffffffffffff811115610dc257610dc1613f13565b5b604051908082528060200260200182016040528015610df05781602001602082028036833780820191505090505b507f0f00000000000000000000000000000000000000000000000000000000000000959493929190965096509650965096509650965090919293949596565b6000600560019054906101000a900473ffffffffffffffffffffffffffffffffffffffff16905090565b600080610e64610ef4565b90508065ffffffffffff168310610eb45782816040517fecd3f81e000000000000000000000000000000000000000000000000000000008152600401610eab929190613d68565b60405180910390fd5b610ed0610ec08461166d565b600b6116c790919063ffffffff16565b79ffffffffffffffffffffffffffffffffffffffffffffffffffff16915050919050565b600042905090565b606060048054610f0b90613d37565b80601f0160208091040260200160405190810160405280929190818152602001828054610f3790613d37565b8015610f845780601f10610f5957610100808354040283529160200191610f84565b820191906000526020600020905b815481529060010190602001808311610f6757829003601f168201915b5050505050905090565b6000610fd7600a60008473ffffffffffffffffffffffffffffffffffffffff1673ffffffffffffffffffffffffffffffffffffffff168152602001908152602001600020611cd1565b79ffffffffffffffffffffffffffffffffffffffffffffffffffff169050919050565b600080611005611414565b90506110128185856114c2565b600191505092915050565b8342111561106257836040517f4683af0e00000000000000000000000000000000000000000000000000000000815260040161105991906135cc565b60405180910390fd5b60006110c46110bc7fe48329057bfd03d55e49b547132e39cffd9c1820ad7b9d4c5307691425d15adf8989896040516020016110a19493929190613f42565b60405160208183030381529060405280519060200120611d39565b858585611d53565b90506110d08187611d83565b6110da81886119af565b50505050505050565b8342111561112857836040517f6279130200000000000000000000000000000000000000000000000000000000815260040161111f91906135cc565b60405180910390fd5b60007f6e71edae12b1b97f4d1f60370fef10105fa2faae0126114a169c64845d6126c98888886111578c611ddb565b8960405160200161116d96959493929190613f87565b604051602081830303815290604052805190602001209050600061119082611d39565b905060006111a082878787611d53565b90508973ffffffffffffffffffffffffffffffffffffffff168173ffffffffffffffffffffffffffffffffffffffff161461121457808a6040517f4b800e4600000000000000000000000000000000000000000000000000000000815260040161120b929190613fe8565b60405180910390fd5b61121f8a8a8a61141c565b50505050505050505050565b60003073ffffffffffffffffffffffffffffffffffffffff168373ffffffffffffffffffffffffffffffffffffffff161461129d57826040517fb5a7db92000000000000000000000000000000000000000000000000000000008152600401611294919061370e565b60405180910390fd5b6112a78383611e32565b905092915050565b6000600160008473ffffffffffffffffffffffffffffffffffffffff1673ffffffffffffffffffffffffffffffffffffffff16815260200190815260200160002060008373ffffffffffffffffffffffffffffffffffffffff1673ffffffffffffffffffffffffffffffffffffffff16815260200190815260200160002054905092915050565b61133e6133b9565b6113488383611e3a565b905092915050565b6113586117c1565b600073ffffffffffffffffffffffffffffffffffffffff168173ffffffffffffffffffffffffffffffffffffffff16036113ca5760006040517f1e4fbdf70000000000000000000000000000000000000000000000000000000081526004016113c1919061370e565b60405180910390fd5b6113d381611b20565b50565b60006113e182610ce5565b9050919050565b600081836113f69190614011565b905092915050565b6000818361140c919061405f565b905092915050565b600033905090565b6114298383836001611e9b565b505050565b600061143a84846112af565b90507fffffffffffffffffffffffffffffffffffffffffffffffffffffffffffffffff81146114bc57818110156114ac578281836040517ffb8f41b20000000000000000000000000000000000000000000000000000000081526004016114a3939291906140ad565b60405180910390fd5b6114bb84848484036000611e9b565b5b50505050565b600073ffffffffffffffffffffffffffffffffffffffff168373ffffffffffffffffffffffffffffffffffffffff16036115345760006040517f96c6fd1e00000000000000000000000000000000000000000000000000000000815260040161152b919061370e565b60405180910390fd5b600073ffffffffffffffffffffffffffffffffffffffff168273ffffffffffffffffffffffffffffffffffffffff16036115a65760006040517fec442f0500000000000000000000000000000000000000000000000000000000815260040161159d919061370e565b60405180910390fd5b6115b1838383612072565b505050565b60007f000000000000000000000000000000000000000000000000000000000000000073ffffffffffffffffffffffffffffffffffffffff163073ffffffffffffffffffffffffffffffffffffffff1614801561163257507f000000000000000000000000000000000000000000000000000000000000000046145b1561165f577f0000000000000000000000000000000000000000000000000000000000000000905061166a565b611667612082565b90505b90565b600065ffffffffffff80168211156116bf576030826040517f6dfcc6500000000000000000000000000000000000000000000000000000000081526004016116b6929190614129565b60405180910390fd5b819050919050565b60008083600001805490509050600080829050600583111561174f5760006116ee84612118565b846116f99190613edf565b905061170887600001826122b5565b60000160009054906101000a900465ffffffffffff1665ffffffffffff168665ffffffffffff16101561173d5780915061174d565b60018161174a9190613eab565b92505b505b6000611760876000018785856122ca565b9050600081146117b2576117838760000160018361177e9190613edf565b6122b5565b60000160069054906101000a900479ffffffffffffffffffffffffffffffffffffffffffffffffffff166117b5565b60005b94505050505092915050565b6117c9611414565b73ffffffffffffffffffffffffffffffffffffffff166117e7610e2f565b73ffffffffffffffffffffffffffffffffffffffff16146118465761180a611414565b6040517f118cdaa700000000000000000000000000000000000000000000000000000000815260040161183d919061370e565b60405180910390fd5b565b611850612343565b6000600560006101000a81548160ff0219169083151502179055507f5db9ee0a495bf2e6ff9c91a7834c1ba4fdd244a5e8aa4e537bd38aeae4b073aa611894611414565b6040516118a1919061370e565b60405180910390a1565b600073ffffffffffffffffffffffffffffffffffffffff168273ffffffffffffffffffffffffffffffffffffffff160361191d5760006040517fec442f05000000000000000000000000000000000000000000000000000000008152600401611914919061370e565b60405180910390fd5b61192960008383612072565b5050565b600073ffffffffffffffffffffffffffffffffffffffff168273ffffffffffffffffffffffffffffffffffffffff160361199f5760006040517f96c6fd1e000000000000000000000000000000000000000000000000000000008152600401611996919061370e565b60405180910390fd5b6119ab82600083612072565b5050565b60006119ba836109b6565b905081600960008573ffffffffffffffffffffffffffffffffffffffff1673ffffffffffffffffffffffffffffffffffffffff16815260200190815260200160002060006101000a81548173ffffffffffffffffffffffffffffffffffffffff021916908373ffffffffffffffffffffffffffffffffffffffff1602179055508173ffffffffffffffffffffffffffffffffffffffff168173ffffffffffffffffffffffffffffffffffffffff168473ffffffffffffffffffffffffffffffffffffffff167f3134e8a2e6d97e929a7e54011ea5485d7d196dd5f0ba4d4ef95803e8e3fc257f60405160405180910390a4611abe8183611ab986612383565b612395565b505050565b600090565b6000611b19611b14600a60008573ffffffffffffffffffffffffffffffffffffffff1673ffffffffffffffffffffffffffffffffffffffff16815260200190815260200160002061260e565b61261f565b9050919050565b6000600560019054906101000a900473ffffffffffffffffffffffffffffffffffffffff16905081600560016101000a81548173ffffffffffffffffffffffffffffffffffffffff021916908373ffffffffffffffffffffffffffffffffffffffff1602179055508173ffffffffffffffffffffffffffffffffffffffff168173ffffffffffffffffffffffffffffffffffffffff167f8be0079c531659141344cd1fd0a4f28419497f9722a3daafe3b4186f6b6457e060405160405180910390a35050565b6000611bf182612677565b9050919050565b611c006126c0565b6001600560006101000a81548160ff0219169083151502179055507f62e78cea01bee320cd4e420270b5ea74000d11b0c9f74754ebdbfc544b05a258611c44611414565b604051611c51919061370e565b60405180910390a1565b6060611c9160067f000000000000000000000000000000000000000000000000000000000000000061270190919063ffffffff16565b905090565b6060611ccc60077f000000000000000000000000000000000000000000000000000000000000000061270190919063ffffffff16565b905090565b6000808260000180549050905060008114611d2e57611cff83600001600183611cfa9190613edf565b6122b5565b60000160069054906101000a900479ffffffffffffffffffffffffffffffffffffffffffffffffffff16611d31565b60005b915050919050565b6000611d4c611d466115b6565b836127b1565b9050919050565b600080600080611d65888888886127f2565b925092509250611d7582826128e6565b829350505050949350505050565b6000611d8e83611ddb565b9050808214611dd65782816040517f752d88c0000000000000000000000000000000000000000000000000000000008152600401611dcd929190614152565b60405180910390fd5b505050565b6000600860008373ffffffffffffffffffffffffffffffffffffffff1673ffffffffffffffffffffffffffffffffffffffff1681526020019081526020016000206000815480929190600101919050559050919050565b600092915050565b611e426133b9565b611e9382600a60008673ffffffffffffffffffffffffffffffffffffffff1673ffffffffffffffffffffffffffffffffffffffff168152602001908152602001600020612a4a90919063ffffffff16565b905092915050565b600073ffffffffffffffffffffffffffffffffffffffff168473ffffffffffffffffffffffffffffffffffffffff1603611f0d5760006040517fe602df05000000000000000000000000000000000000000000000000000000008152600401611f04919061370e565b60405180910390fd5b600073ffffffffffffffffffffffffffffffffffffffff168373ffffffffffffffffffffffffffffffffffffffff1603611f7f5760006040517f94280d62000000000000000000000000000000000000000000000000000000008152600401611f76919061370e565b60405180910390fd5b81600160008673ffffffffffffffffffffffffffffffffffffffff1673ffffffffffffffffffffffffffffffffffffffff16815260200190815260200160002060008573ffffffffffffffffffffffffffffffffffffffff1673ffffffffffffffffffffffffffffffffffffffff16815260200190815260200160002081905550801561206c578273ffffffffffffffffffffffffffffffffffffffff168473ffffffffffffffffffffffffffffffffffffffff167f8c5be1e5ebec7d5bd14f71427d1e84f3dd0314c0f7b2291e5b200ac8c7c3b9258460405161206391906135cc565b60405180910390a35b50505050565b61207d838383612b1f565b505050565b60007f8b73c3c69bb8fe3d512ecc4cf759cc79239f7b179b0ffacaa9a75d522b39400f7f00000000000000000000000000000000000000000000000000000000000000007f000000000000000000000000000000000000000000000000000000000000000046306040516020016120fd95949392919061417b565b60405160208183030381529060405280519060200120905090565b60006001821161212a578190506122b0565b6000829050600060019050700100000000000000000000000000000000821061215c57608082901c9150604081901b90505b68010000000000000000821061217b57604082901c9150602081901b90505b640100000000821061219657602082901c9150601081901b90505b6201000082106121af57601082901c9150600881901b90505b61010082106121c757600882901c9150600481901b90505b601082106121de57600482901c9150600281901b90505b600482106121ee57600181901b90505b600181600302901c9050600181858161220a576122096141ce565b5b048201901c90506001818581612223576122226141ce565b5b048201901c9050600181858161223c5761223b6141ce565b5b048201901c90506001818581612255576122546141ce565b5b048201901c9050600181858161226e5761226d6141ce565b5b048201901c90506001818581612287576122866141ce565b5b048201901c90506122a98185816122a1576122a06141ce565b5b048211612bd0565b8103925050505b919050565b60008260005281602060002001905092915050565b60005b818310156123385760006122e18484612bdc565b90508465ffffffffffff166122f687836122b5565b60000160009054906101000a900465ffffffffffff1665ffffffffffff16111561232257809250612332565b60018161232f9190613eab565b93505b506122cd565b819050949350505050565b61234b610a39565b612381576040517f8dfc202b00000000000000000000000000000000000000000000000000000000815260040160405180910390fd5b565b600061238e82610ce5565b9050919050565b8173ffffffffffffffffffffffffffffffffffffffff168373ffffffffffffffffffffffffffffffffffffffff16141580156123d15750600081115b1561260957600073ffffffffffffffffffffffffffffffffffffffff168373ffffffffffffffffffffffffffffffffffffffff16146124ef57600080612460600a60008773ffffffffffffffffffffffffffffffffffffffff1673ffffffffffffffffffffffffffffffffffffffff1681526020019081526020016000206113fe61245b86612c02565b612c70565b79ffffffffffffffffffffffffffffffffffffffffffffffffffff16915079ffffffffffffffffffffffffffffffffffffffffffffffffffff1691508473ffffffffffffffffffffffffffffffffffffffff167fdec2bacdd2f05b59de34da9b523dff8be42e5e38e818c82fdb0bae774387a72483836040516124e49291906141fd565b60405180910390a250505b600073ffffffffffffffffffffffffffffffffffffffff168273ffffffffffffffffffffffffffffffffffffffff161461260857600080612579600a60008673ffffffffffffffffffffffffffffffffffffffff1673ffffffffffffffffffffffffffffffffffffffff1681526020019081526020016000206113e861257486612c02565b612c70565b79ffffffffffffffffffffffffffffffffffffffffffffffffffff16915079ffffffffffffffffffffffffffffffffffffffffffffffffffff1691508373ffffffffffffffffffffffffffffffffffffffff167fdec2bacdd2f05b59de34da9b523dff8be42e5e38e818c82fdb0bae774387a72483836040516125fd9291906141fd565b60405180910390a250505b5b505050565b600081600001805490509050919050565b600063ffffffff801682111561266f576020826040517f6dfcc650000000000000000000000000000000000000000000000000000000008152600401612666929190614261565b60405180910390fd5b819050919050565b6000600860008373ffffffffffffffffffffffffffffffffffffffff1673ffffffffffffffffffffffffffffffffffffffff168152602001908152602001600020549050919050565b6126c8610a39565b156126ff576040517fd93c066500000000000000000000000000000000000000000000000000000000815260040160405180910390fd5b565b606060ff60001b831461271e5761271783612cb0565b90506127ab565b81805461272a90613d37565b80601f016020809104026020016040519081016040528092919081815260200182805461275690613d37565b80156127a35780601f10612778576101008083540402835291602001916127a3565b820191906000526020600020905b81548152906001019060200180831161278657829003601f168201915b505050505090505b92915050565b60006040517f190100000000000000000000000000000000000000000000000000000000000081528360028201528260228201526042812091505092915050565b60008060007f7fffffffffffffffffffffffffffffff5d576e7357a4501ddfe92f46681b20a08460001c11156128325760006003859250925092506128dc565b600060018888888860405160008152602001604052604051612857949392919061428a565b6020604051602081039080840390855afa158015612879573d6000803e3d6000fd5b505050602060405103519050600073ffffffffffffffffffffffffffffffffffffffff168173ffffffffffffffffffffffffffffffffffffffff16036128cd57600060016000801b935093509350506128dc565b8060008060001b935093509350505b9450945094915050565b600060038111156128fa576128f96142cf565b5b82600381111561290d5761290c6142cf565b5b0315612a465760016003811115612927576129266142cf565b5b82600381111561293a576129396142cf565b5b03612971576040517ff645eedf00000000000000000000000000000000000000000000000000000000815260040160405180910390fd5b60026003811115612985576129846142cf565b5b826003811115612998576129976142cf565b5b036129dd578060001c6040517ffce698f70000000000000000000000000000000000000000000000000000000081526004016129d491906135cc565b60405180910390fd5b6003808111156129f0576129ef6142cf565b5b826003811115612a0357612a026142cf565b5b03612a4557806040517fd78bce0c000000000000000000000000000000000000000000000000000000008152600401612a3c919061368a565b60405180910390fd5b5b5050565b612a526133b9565b826000018263ffffffff1681548110612a6e57612a6d6142fe565b5b906000526020600020016040518060400160405290816000820160009054906101000a900465ffffffffffff1665ffffffffffff1665ffffffffffff1681526020016000820160069054906101000a900479ffffffffffffffffffffffffffffffffffffffffffffffffffff1679ffffffffffffffffffffffffffffffffffffffffffffffffffff1679ffffffffffffffffffffffffffffffffffffffffffffffffffff1681525050905092915050565b612b2a838383612d24565b600073ffffffffffffffffffffffffffffffffffffffff168373ffffffffffffffffffffffffffffffffffffffff1603612bc0576000612b68610813565b90506000612b74612d3c565b905080821115612bbd5781816040517f1cb15d26000000000000000000000000000000000000000000000000000000008152600401612bb49291906141fd565b60405180910390fd5b50505b612bcb838383612d60565b505050565b60008115159050919050565b60006002828418612bed919061432d565b828416612bfa9190613eab565b905092915050565b600079ffffffffffffffffffffffffffffffffffffffffffffffffffff8016821115612c685760d0826040517f6dfcc650000000000000000000000000000000000000000000000000000000008152600401612c5f929190614399565b60405180910390fd5b819050919050565b600080612ca4612c7e610ef4565b612c94612c8a88611cd1565b868863ffffffff16565b87612e1a9092919063ffffffff16565b91509150935093915050565b60606000612cbd83612e37565b90506000602067ffffffffffffffff811115612cdc57612cdb613f13565b5b6040519080825280601f01601f191660200182016040528015612d0e5781602001600182028036833780820191505090505b5090508181528360208201528092505050919050565b612d2c6126c0565b612d37838383612e87565b505050565b600079ffffffffffffffffffffffffffffffffffffffffffffffffffff8016905090565b600073ffffffffffffffffffffffffffffffffffffffff168373ffffffffffffffffffffffffffffffffffffffff1603612dad57612daa600b6113e8612da584612c02565b612c70565b50505b600073ffffffffffffffffffffffffffffffffffffffff168273ffffffffffffffffffffffffffffffffffffffff1603612dfa57612df7600b6113fe612df284612c02565b612c70565b50505b612e15612e06846109b6565b612e0f846109b6565b83612395565b505050565b600080612e2b8560000185856130ac565b91509150935093915050565b60008060ff8360001c169050601f811115612e7e576040517fb3512b0c00000000000000000000000000000000000000000000000000000000815260040160405180910390fd5b80915050919050565b600073ffffffffffffffffffffffffffffffffffffffff168373ffffffffffffffffffffffffffffffffffffffff1603612ed9578060026000828254612ecd9190613eab565b92505081905550612fac565b60008060008573ffffffffffffffffffffffffffffffffffffffff1673ffffffffffffffffffffffffffffffffffffffff16815260200190815260200160002054905081811015612f65578381836040517fe450d38c000000000000000000000000000000000000000000000000000000008152600401612f5c939291906140ad565b60405180910390fd5b8181036000808673ffffffffffffffffffffffffffffffffffffffff1673ffffffffffffffffffffffffffffffffffffffff16815260200190815260200160002081905550505b600073ffffffffffffffffffffffffffffffffffffffff168273ffffffffffffffffffffffffffffffffffffffff1603612ff55780600260008282540392505081905550613042565b806000808473ffffffffffffffffffffffffffffffffffffffff1673ffffffffffffffffffffffffffffffffffffffff168152602001908152602001600020600082825401925050819055505b8173ffffffffffffffffffffffffffffffffffffffff168373ffffffffffffffffffffffffffffffffffffffff167fddf252ad1be2c89b69c2b068fc378daa952ba7f163c4a11628f55a4df523b3ef8360405161309f91906135cc565b60405180910390a3505050565b60008060008580549050905060008111156132c95760006130d9876001846130d49190613edf565b6122b5565b905060008160000160009054906101000a900465ffffffffffff16905060008260000160069054906101000a900479ffffffffffffffffffffffffffffffffffffffffffffffffffff1690508765ffffffffffff168265ffffffffffff16111561316f576040517f2520601d00000000000000000000000000000000000000000000000000000000815260040160405180910390fd5b8765ffffffffffff168265ffffffffffff16036131da57868360000160066101000a81548179ffffffffffffffffffffffffffffffffffffffffffffffffffff021916908379ffffffffffffffffffffffffffffffffffffffffffffffffffff1602179055506132ba565b8860405180604001604052808a65ffffffffffff1681526020018979ffffffffffffffffffffffffffffffffffffffffffffffffffff168152509080600181540180825580915050600190039060005260206000200160009091909190915060008201518160000160006101000a81548165ffffffffffff021916908365ffffffffffff16021790555060208201518160000160066101000a81548179ffffffffffffffffffffffffffffffffffffffffffffffffffff021916908379ffffffffffffffffffffffffffffffffffffffffffffffffffff16021790555050505b808795509550505050506133b1565b8560405180604001604052808765ffffffffffff1681526020018679ffffffffffffffffffffffffffffffffffffffffffffffffffff168152509080600181540180825580915050600190039060005260206000200160009091909190915060008201518160000160006101000a81548165ffffffffffff021916908365ffffffffffff16021790555060208201518160000160066101000a81548179ffffffffffffffffffffffffffffffffffffffffffffffffffff021916908379ffffffffffffffffffffffffffffffffffffffffffffffffffff160217905550505060008492509250505b935093915050565b6040518060400160405280600065ffffffffffff168152602001600079ffffffffffffffffffffffffffffffffffffffffffffffffffff1681525090565b600081519050919050565b600082825260208201905092915050565b60005b83811015613431578082015181840152602081019050613416565b60008484015250505050565b6000601f19601f8301169050919050565b6000613459826133f7565b6134638185613402565b9350613473818560208601613413565b61347c8161343d565b840191505092915050565b600060208201905081810360008301526134a1818461344e565b905092915050565b600080fd5b600080fd5b600073ffffffffffffffffffffffffffffffffffffffff82169050919050565b60006134de826134b3565b9050919050565b6134ee816134d3565b81146134f957600080fd5b50565b60008135905061350b816134e5565b92915050565b6000819050919050565b61352481613511565b811461352f57600080fd5b50565b6000813590506135418161351b565b92915050565b6000806040838503121561355e5761355d6134a9565b5b600061356c858286016134fc565b925050602061357d85828601613532565b9150509250929050565b60008115159050919050565b61359c81613587565b82525050565b60006020820190506135b76000830184613593565b92915050565b6135c681613511565b82525050565b60006020820190506135e160008301846135bd565b92915050565b600080600060608486031215613600576135ff6134a9565b5b600061360e868287016134fc565b935050602061361f868287016134fc565b925050604061363086828701613532565b9150509250925092565b600060ff82169050919050565b6136508161363a565b82525050565b600060208201905061366b6000830184613647565b92915050565b6000819050919050565b61368481613671565b82525050565b600060208201905061369f600083018461367b565b92915050565b6000602082840312156136bb576136ba6134a9565b5b60006136c984828501613532565b91505092915050565b6000602082840312156136e8576136e76134a9565b5b60006136f6848285016134fc565b91505092915050565b613708816134d3565b82525050565b600060208201905061372360008301846136ff565b92915050565b6000613734826134d3565b9050919050565b61374481613729565b811461374f57600080fd5b50565b6000813590506137618161373b565b92915050565b600080fd5b600080fd5b600080fd5b60008083601f84011261378c5761378b613767565b5b8235905067ffffffffffffffff8111156137a9576137a861376c565b5b6020830191508360018202830111156137c5576137c4613771565b5b9250929050565b6000806000806000608086880312156137e8576137e76134a9565b5b60006137f688828901613752565b9550506020613807888289016134fc565b945050604061381888828901613532565b935050606086013567ffffffffffffffff811115613839576138386134ae565b5b61384588828901613776565b92509250509295509295909350565b600063ffffffff82169050919050565b61386d81613854565b82525050565b60006020820190506138886000830184613864565b92915050565b60007fff0000000000000000000000000000000000000000000000000000000000000082169050919050565b6138c38161388e565b82525050565b600081519050919050565b600082825260208201905092915050565b6000819050602082019050919050565b6138fe81613511565b82525050565b600061391083836138f5565b60208301905092915050565b6000602082019050919050565b6000613934826138c9565b61393e81856138d4565b9350613949836138e5565b8060005b8381101561397a5781516139618882613904565b975061396c8361391c565b92505060018101905061394d565b5085935050505092915050565b600060e08201905061399c600083018a6138ba565b81810360208301526139ae818961344e565b905081810360408301526139c2818861344e565b90506139d160608301876135bd565b6139de60808301866136ff565b6139eb60a083018561367b565b81810360c08301526139fd8184613929565b905098975050505050505050565b600065ffffffffffff82169050919050565b613a2681613a0b565b82525050565b6000602082019050613a416000830184613a1d565b92915050565b613a508161363a565b8114613a5b57600080fd5b50565b600081359050613a6d81613a47565b92915050565b613a7c81613671565b8114613a8757600080fd5b50565b600081359050613a9981613a73565b92915050565b60008060008060008060c08789031215613abc57613abb6134a9565b5b6000613aca89828a016134fc565b9650506020613adb89828a01613532565b9550506040613aec89828a01613532565b9450506060613afd89828a01613a5e565b9350506080613b0e89828a01613a8a565b92505060a0613b1f89828a01613a8a565b9150509295509295509295565b600080600080600080600060e0888a031215613b4b57613b4a6134a9565b5b6000613b598a828b016134fc565b9750506020613b6a8a828b016134fc565b9650506040613b7b8a828b01613532565b9550506060613b8c8a828b01613532565b9450506080613b9d8a828b01613a5e565b93505060a0613bae8a828b01613a8a565b92505060c0613bbf8a828b01613a8a565b91505092959891949750929550565b60008060408385031215613be557613be46134a9565b5b6000613bf3858286016134fc565b9250506020613c04858286016134fc565b9150509250929050565b613c1781613854565b8114613c2257600080fd5b50565b600081359050613c3481613c0e565b92915050565b60008060408385031215613c5157613c506134a9565b5b6000613c5f858286016134fc565b9250506020613c7085828601613c25565b9150509250929050565b613c8381613a0b565b82525050565b600079ffffffffffffffffffffffffffffffffffffffffffffffffffff82169050919050565b613cb881613c89565b82525050565b604082016000820151613cd46000850182613c7a565b506020820151613ce76020850182613caf565b50505050565b6000604082019050613d026000830184613cbe565b92915050565b7f4e487b7100000000000000000000000000000000000000000000000000000000600052602260045260246000fd5b60006002820490506001821680613d4f57607f821691505b602082108103613d6257613d61613d08565b5b50919050565b6000604082019050613d7d60008301856135bd565b613d8a6020830184613a1d565b9392505050565b600082825260208201905092915050565b82818337600083830152505050565b6000613dbd8385613d91565b9350613dca838584613da2565b613dd38361343d565b840190509392505050565b600060a082019050613df360008301896136ff565b613e0060208301886136ff565b613e0d60408301876135bd565b613e1a60608301866135bd565b8181036080830152613e2d818486613db1565b9050979650505050505050565b600081519050613e4981613a73565b92915050565b600060208284031215613e6557613e646134a9565b5b6000613e7384828501613e3a565b91505092915050565b7f4e487b7100000000000000000000000000000000000000000000000000000000600052601160045260246000fd5b6000613eb682613511565b9150613ec183613511565b9250828201905080821115613ed957613ed8613e7c565b5b92915050565b6000613eea82613511565b9150613ef583613511565b9250828203905081811115613f0d57613f0c613e7c565b5b92915050565b7f4e487b7100000000000000000000000000000000000000000000000000000000600052604160045260246000fd5b6000608082019050613f57600083018761367b565b613f6460208301866136ff565b613f7160408301856135bd565b613f7e60608301846135bd565b95945050505050565b600060c082019050613f9c600083018961367b565b613fa960208301886136ff565b613fb660408301876136ff565b613fc360608301866135bd565b613fd060808301856135bd565b613fdd60a08301846135bd565b979650505050505050565b6000604082019050613ffd60008301856136ff565b61400a60208301846136ff565b9392505050565b600061401c82613c89565b915061402783613c89565b9250828201905079ffffffffffffffffffffffffffffffffffffffffffffffffffff81111561405957614058613e7c565b5b92915050565b600061406a82613c89565b915061407583613c89565b9250828203905079ffffffffffffffffffffffffffffffffffffffffffffffffffff8111156140a7576140a6613e7c565b5b92915050565b60006060820190506140c260008301866136ff565b6140cf60208301856135bd565b6140dc60408301846135bd565b949350505050565b6000819050919050565b6000819050919050565b600061411361410e614109846140e4565b6140ee565b61363a565b9050919050565b614123816140f8565b82525050565b600060408201905061413e600083018561411a565b61414b60208301846135bd565b9392505050565b600060408201905061416760008301856136ff565b61417460208301846135bd565b9392505050565b600060a082019050614190600083018861367b565b61419d602083018761367b565b6141aa604083018661367b565b6141b760608301856135bd565b6141c460808301846136ff565b9695505050505050565b7f4e487b7100000000000000000000000000000000000000000000000000000000600052601260045260246000fd5b600060408201905061421260008301856135bd565b61421f60208301846135bd565b9392505050565b6000819050919050565b600061424b61424661424184614226565b6140ee565b61363a565b9050919050565b61425b81614230565b82525050565b60006040820190506142766000830185614252565b61428360208301846135bd565b9392505050565b600060808201905061429f600083018761367b565b6142ac6020830186613647565b6142b9604083018561367b565b6142c6606083018461367b565b95945050505050565b7f4e487b7100000000000000000000000000000000000000000000000000000000600052602160045260246000fd5b7f4e487b7100000000000000000000000000000000000000000000000000000000600052603260045260246000fd5b600061433882613511565b915061434383613511565b925082614353576143526141ce565b5b828204905092915050565b6000819050919050565b600061438361437e6143798461435e565b6140ee565b61363a565b9050919050565b61439381614368565b82525050565b60006040820190506143ae600083018561438a565b6143bb60208301846135bd565b939250505056fea2646970667358221220d905e2336ee80fe681dd8d2ea7f68e9114381f5d4a38ef388d0fe4372e876ea964736f6c63430008160033",
  "linkReferences": {},
  "deployedLinkReferences": {}
}